:0400000055EF00F0C8
:060008005B8252ED06F0E0
:100018005B80D8CF14F0E8CF15F0E0CF16F0FACF18
:1000280017F0FBCF18F0E9CF19F0EACF1AF0E1CFBB
:100038001BF0E2CF1CF0D9CF1DF0DACF1EF0F3CFC2
:100048001FF0F4CF20F0F6CF21F0F7CF22F0F8CF51
:1000580023F0F5CF24F0F29EF28E24C0F5FF23C0E2
:10006800F8FF22C0F7FF21C0F6FF20C0F4FF1FC031
:10007800F3FF1EC0DAFF1DC0D9FF1CC0E2FF1BC082
:10008800E1FF1AC0EAFF19C0E9FF18C0FBFF17C05B
:10009800FAFF16C0E0FF15C0E8FF14C0D8FF5B9058
:0600A8001000CBEF06F092
:10060000000A0D70726F6772616D2073746172748D
:100610000A0D000042C046F0476A486A4134463637
:1006200001E3478046504B6E45C046F0476A486A32
:100630004434463601E3478046504A6E4B50D8B4A6
:100640000BD04A504B5CD8B00ED04B5000084A2417
:10065000466E180E466407D043C040F044C041F0D7
:1006600045C042F012004A50D8B40BD04B504A5CFF
:10067000D8B00ED04A5000084B24466E180E46647F
:1006800007D040C040F041C041F042C042F01200EB
:10069000060E496E42BE498E45BE498C418EFF0E04
:1006A0004016FF0E4116000E4216448EFF0E4316F2
:1006B000FF0E4416000E45164A504B5CD8B01BD0B6
:1006C000D8904336443645364A064B504A18D8B47B
:1006D0000DD0490649C046F0070E4616D8B406D0DC
:1006E000EFD7D8904232413240324B2A4A504B1811
:1006F000D8B41FD0F6D74B504A5CD8B01AD0D89097
:100700004036413642364B064B504A18D8B40DD0CD
:10071000490649C046F0070E4616D8B406D0EFD7B2
:10072000D8904532443243324A2A4A504B18D8A412
:10073000F7D749AE0CD0FF0E401AFF0E411AFF0E3C
:10074000421A010E4026000E4122000E422249AC00
:100750000CD0FF0E431AFF0E441AFF0E451A010E6D
:100760004326000E4422000E4522000E496E4050E2
:100770004326415044224250452245AE0ED0FF0E42
:10078000431AFF0E441AFF0E451A010E4326000EAF
:100790004422000E4522010E496E43C025F044C09C
:1007A00026F045C027F04BC028F049C029F0FBECEB
:1007B00005F025C040F026C041F027C042F01200ED
:1007C000000E0001876FD3508F0B3009D36E030EDC
:1007D000D312D3A4FED7000E936E000E8A6E000EC5
:1007E000266E670E256E000E286E000E276E000E18
:1007F0002A6E000E296E000E2C6E010E2B6E2DEC53
:1008000007F09492CA96CA98CA9ACA9C030ECA1252
:100810009C0ECB6ECF0EBA16BA50F00B0C09BA6E06
:10082000000EBB6ED08EF28EF28CCA84000E256E46
:10083000010E266E010E276E060E286EF2EC06F0F3
:10084000000E266E010E276E12EC07F088C025F010
:1008500089C026F048EC07F000018351D8B4FCD7DA
:100860000001895105E1110E0001885DD8A009D071
:100870002D0E00018A19D8A404D000018807D8A041
:100880008907000189510DE14C0E0001885DD8B047
:1008900008D02B0E00018A19D8A403D00001884B80
:1008A000892B3A0E00018A6119D02F0E00018A654A
:1008B00015D000018751010D800EF324D96E000E72
:1008C000F420DA6E8AC0DFFF0001872B030E0001DF
:1008D0008719D8A403D0000E0001876F0D0E000108
:1008E0008A19D8A423D0800E2B6E000E2C6E94ECA7
:1008F00005F02BC088F02CC089F0000188519CECD9
:1009000006F084C088F085C089F0000E0001876F72
:10091000800E256E000E266E000E286E000E276ECD
:10092000000E2A6E030E296E76EC07F088C025F0C3
:1009300089C026F048EC07F0000E0001836F8CD7C9
:100940004EC050F0516A526A4D34503601E3518026
:1009500050505A6E5A50D8A409D0000E4C6E000E5A
:100960004D6E000E4E6E000E4F6E1200170E506E42
:100970004CC051F04DC052F04EC053F05028546E50
:1009800004D0D890533252325132542EFAD75150AB
:10099000556E4D8EFF0E4C16FF0E4D16000E4E1668
:1009A0004C50566E4D50576E4E50586E596A8E0EC2
:1009B0005A5E5AAE16D05A50800A8F0FD8B009D05E
:1009C000000E4C6E000E4D6E000E4E6E000E4F6E01
:1009D0001200D89059325832573256325A3EF9D70F
:1009E00015D0170E5A640FD0000E4C6E000E4D6ECF
:1009F000000E4E6E000E4F6E1200D89056365736CF
:100A0000583659365A065A50D8A4F7D75550D8B444
:100A100008D0591E581E571E566C000E57225822D9
:100A2000592256C04CF057C04DF058C04EF059C036
:100A30004FF0120033C037F0386A396A3234373633
:100A400001E3388037503A6E3A50D8A407D0000EF0
:100A5000316E000E326E000E336E120036C037F06B
:100A6000386A396A3534373601E3388037503F6E9B
:100A70003F50D8A407D0000E316E000E326E000E2B
:100A8000336E12003F507B0F3A2633C03FF0365092
:100A90003F1A800E3F16328E358EFF0E3416FF0E33
:100AA0003516000E3616000E3B6E000E3C6E000E24
:100AB0003D6E070E3E6E31A006D034503B263550B9
:100AC0003C2236503D22D890333232323132D890E7
:100AD0003436353636363E2EEED7090E3E6E31A010
:100AE00006D034503B2635503C2236503D22D8901B
:100AF000333232323132D8903D323C323B323E2EAC
:100B0000EED73BC025F03CC026F03DC027F03AC0F0
:100B100028F03FC029F0FBEC05F025C031F026C0DD
:100B200032F027C033F0120002D02B4A2C2A2BC0FF
:100B3000D9FF2CC0DAFF200EDE18D8B4F6D72BC0B0
:100B4000D9FF2CC0DAFF090EDE18D8B4EED7000E9C
:100B5000316E000E306E000E2F6E2BC0D9FF2CC0F0
:100B6000DAFF2D0EDE18D8A402D02F2A24D02BC0F5
:100B7000D9FF2CC0DAFF2B0EDE18D8A41ED01BD054
:100B800030C025F031C026F0000E286E0A0E276E08
:100B90008CEC07F02BC0D9FF2CC0DAFFDF502D6E94
:100BA0002E6A25502D2626502E22D00E2D24306E52
:100BB000FF0E2E20316E2B4A2C2A2BC0D9FF2CC0C1
:100BC000DAFFDF50B1EC07F0D8B0DAD72F50D8B445
:100BD0000DD030C02DF031C02EF02D1E2E1E2D4A0E
:100BE0002E2A2DC02BF02EC02CF0120030C02BF07E
:100BF00031C02CF012002850D8B405D02550261052
:100C00002710D8A40CD0000E256E000E266E000E04
:100C1000276E1200282AD890273226322532000E5D
:100C200025142A6E000E26142B6EFE0E27142C6E31
:100C30002A502B102C10D8B40CD0ECD7282A010E37
:100C40002526000E2622000E2722D8902732263293
:100C50002532000E25142A6E000E26142B6EFF0E70
:100C600027142C6E2A502B102C10D8B406D0E6D79F
:100C70002806D89025362636273626BE03D0020E03
:100C80002860F6D728A0269ED89028322850271210
:100C90002950D8A4278E25C025F026C026F027C0CD
:100CA00027F012000600FACF06F0FBCF07F0E9CFDD
:100CB00008F0EACF09F0E1CF0AF0E2CF0BF0D9CF8C
:100CC0000CF0DACF0DF0F3CF0EF0F4CF0FF0F6CF3B
:100CD00010F0F7CF11F0F8CF12F0F5CF13F0F29E2D
:100CE0009EAA0BD08A0E016E000E026E830E036E5A
:100CF000000E046E5FEC07F09E9AF28E13C0F5FFB3
:100D000012C0F8FF11C0F7FF10C0F6FF0FC0F4FFCC
:100D10000EC0F3FF0DC0DAFF0CC0D9FF0BC0E2FF1D
:100D20000AC0E1FF09C0EAFF08C0E9FF07C0FBFFF6
:100D300006C0FAFF5B9211000001866F000E436E41
:100D4000880E446E410E456E890E346E880E356EE7
:100D50003E0E366E000186519FEC07F02DC031F03B
:100D60002EC032F02FC033F01AEC05F031C040F045
:100D700032C041F033C042F00AEC03F040C04CF006
:100D800041C04DF042C04EF0A0EC04F04CC084F0E5
:100D90004DC085F01200900EF66E0F0EF76E000E2D
:100DA000F86E0900F5CF88F00900F5CF89F0090049
:100DB000F5CF8AF001EE00F011EE00F0EE6AE5509A
:100DC000E150FCE1E250FAE10001836B826B816B40
:100DD000806B5B905B92000EF86E060EF76E000162
:100DE000E0EF03F0290E296E000E2A6E08D025C010
:100DF000D9FF26C0DAFF2BC0DFFF254A262A27C0ED
:100E0000F6FF28C0F7FF274A282A0800F5CF2BF065
:100E10002B50D8A4ECD725C0D9FF26C0DAFF000E8E
:100E2000DF6E1200000E286E0CD02850010DF3501A
:100E30002624D96EF4502720DA6EDF50C0EC07F07C
:100E4000282A2850010DF3502624D96EF45027206B
:100E5000DA6EDF50D8B41200E8D7948E948C265006
:100E6000B06E25C0AFFFAB88AB8E2BB002D0B8966A
:100E700001D0B88627B002D0AC9801D0AC8829B098
:100E800002D0AC9401D0AC84AC8A9F8A9D8A1200B7
:100E900025C027F0030E2716273ABA502718CF0B84
:100EA0002718BA6E25C027F026C028F0D89028321F
:100EB0002732D890283227322750BB6E1200ABA4BD
:100EC00003D0AECF05F01200ABA203D0AB98AB8835
:100ED000120001C0D9FF02C0DAFFAECFDFFF03C0AE
:100EE000D9FF04C0DAFF010EDF6E120025C02BF01F
:100EF00026C02CF008D02BC0D9FF2CC0DAFF27C0A9
:100F0000DFFF2B4A2C2A2906D8A02A062928F3E13C
:100F10002A28D8B41200EFD725502702F3CF29F0A2
:100F2000F4CF2AF025502802F3502A262650270213
:100F3000F3502A2629C025F02AC026F01200306E70
:100F40003050256E266A276A8E0E286E000E296E96
:100F5000FBEC05F025C02DF026C02EF027C02FF0A9
:100F60001200276E000E266E3A0E276005D02F0E57
:100F7000276402D0010E266E26C025F0253012000F
:100F8000256E25C0ADFF01D000F0ACB21200FCD739
:030F90001000410D
:020000040020DA
:08000000FFFFFFFFFFFFFFFF00
:020000040030CA
:0E000000FF08191EFF8181FF0FC00FE00F40A7
:00000001FF
